{
  "address": "0x9Ffb44AD8348444120fB88570e3C902cEDA73873",
  "abi": [
    {
      "inputs": [
        {
          "internalType": "address",
          "name": "_owner",
          "type": "address"
        }
      ],
      "stateMutability": "nonpayable",
      "type": "constructor"
    },
    {
      "inputs": [
        {
          "internalType": "address",
          "name": "",
          "type": "address"
        },
        {
          "internalType": "uint256",
          "name": "",
          "type": "uint256"
        },
        {
          "internalType": "uint256",
          "name": "",
          "type": "uint256"
        }
      ],
      "name": "data",
      "outputs": [
        {
          "internalType": "uint256",
          "name": "ts",
          "type": "uint256"
        },
        {
          "internalType": "int256",
          "name": "data",
          "type": "int256"
        }
      ],
      "stateMutability": "view",
      "type": "function"
    },
    {
      "inputs": [
        {
          "internalType": "address",
          "name": "",
          "type": "address"
        },
        {
          "internalType": "uint256",
          "name": "",
          "type": "uint256"
        }
      ],
      "name": "dataLength",
      "outputs": [
        {
          "internalType": "uint256",
          "name": "",
          "type": "uint256"
        }
      ],
      "stateMutability": "view",
      "type": "function"
    },
    {
      "inputs": [
        {
          "internalType": "address",
          "name": "_from",
          "type": "address"
        },
        {
          "internalType": "uint256",
          "name": "_id",
          "type": "uint256"
        }
      ],
      "name": "getDataLastest",
      "outputs": [
        {
          "internalType": "uint256",
          "name": "",
          "type": "uint256"
        },
        {
          "internalType": "int256",
          "name": "",
          "type": "int256"
        }
      ],
      "stateMutability": "view",
      "type": "function"
    },
    {
      "inputs": [
        {
          "internalType": "address",
          "name": "_from",
          "type": "address"
        },
        {
          "internalType": "uint256",
          "name": "_id",
          "type": "uint256"
        },
        {
          "internalType": "uint256",
          "name": "_offset",
          "type": "uint256"
        },
        {
          "internalType": "uint256",
          "name": "_size",
          "type": "uint256"
        }
      ],
      "name": "getDataPaging",
      "outputs": [
        {
          "components": [
            {
              "internalType": "uint256",
              "name": "ts",
              "type": "uint256"
            },
            {
              "internalType": "int256",
              "name": "data",
              "type": "int256"
            }
          ],
          "internalType": "struct SensesJBCData.SensesIoTData[]",
          "name": "",
          "type": "tuple[]"
        }
      ],
      "stateMutability": "view",
      "type": "function"
    },
    {
      "inputs": [],
      "name": "owner",
      "outputs": [
        {
          "internalType": "address",
          "name": "",
          "type": "address"
        }
      ],
      "stateMutability": "view",
      "type": "function"
    },
    {
      "inputs": [
        {
          "internalType": "uint256",
          "name": "_id",
          "type": "uint256"
        },
        {
          "internalType": "int256",
          "name": "_data",
          "type": "int256"
        }
      ],
      "name": "pushData",
      "outputs": [],
      "stateMutability": "nonpayable",
      "type": "function"
    },
    {
      "inputs": [
        {
          "internalType": "uint256[]",
          "name": "_ids",
          "type": "uint256[]"
        },
        {
          "internalType": "int256[]",
          "name": "_datas",
          "type": "int256[]"
        }
      ],
      "name": "pushDataBatch",
      "outputs": [
        {
          "internalType": "uint256",
          "name": "",
          "type": "uint256"
        }
      ],
      "stateMutability": "nonpayable",
      "type": "function"
    },
    {
      "inputs": [],
      "name": "version",
      "outputs": [
        {
          "internalType": "uint256",
          "name": "",
          "type": "uint256"
        }
      ],
      "stateMutability": "view",
      "type": "function"
    }
  ],
  "transactionHash": "0x33d30c7b09e6293ad4c4f68c99e6cd8267fec11d48ac991be5e0de84b1c98f03",
  "args": [
    "0xC70Edf3aB36E0D57eFD8f412A3460D225931A110"
  ],
  "numDeployments": 1,
  "solcInputHash": "e9780aa106036f2af1d3b937bcb2c60b",
  "bytecode": "0x60c0604052600160a05234801561001557600080fd5b506040516108cc3803806108cc83398101604081905261003491610045565b6001600160a01b0316608052610075565b60006020828403121561005757600080fd5b81516001600160a01b038116811461006e57600080fd5b9392505050565b60805160a051610833610099600039600060920152600061011801526108336000f3fe608060405234801561001057600080fd5b50600436106100885760003560e01c8063bfab435d1161005b578063bfab435d1461017d578063c059463214610192578063e217f501146101b2578063fbc1abe2146101c557600080fd5b806354fd4d501461008d5780636e0bfd18146100c75780638da5cb5b146101135780639184cd1b14610152575b600080fd5b6100b47f000000000000000000000000000000000000000000000000000000000000000081565b6040519081526020015b60405180910390f35b6100fe6100d53660046104fc565b600060208181529381526040808220855292815282812090935282529020805460019091015482565b604080519283526020830191909152016100be565b61013a7f000000000000000000000000000000000000000000000000000000000000000081565b6040516001600160a01b0390911681526020016100be565b6100b461016036600461052f565b600160209081526000928352604080842090915290825290205481565b61019061018b366004610559565b6101d8565b005b6101a56101a036600461057b565b610237565b6040516100be91906105b4565b6100b46101c03660046106d9565b61039b565b6100fe6101d336600461052f565b610402565b336000818152600160208181526040808420878552808352818520805496865285845282862089875284528286208787528452918520428155840187905587855290915280549192909161022d9084906107a8565b9091555050505050565b6001600160a01b0384166000908152600160209081526040808320868452909152902054606090808085101561026a5750835b8082156102885761027b85826107a8565b9050828111156102885750815b600061029483836107bb565b905060008167ffffffffffffffff8111156102b1576102b1610603565b6040519080825280602002602001820160405280156102f657816020015b60408051808201909152600080825260208201528152602001906001900390816102cf5790505b50905060005b8281101561038d576001600160a01b038b166000908152602081815260408083208d845290915281209061033083886107a8565b81526020019081526020016000206040518060400160405290816000820154815260200160018201548152505082828151811061036f5761036f6107ce565b60200260200101819052508080610385906107e4565b9150506102fc565b509998505050505050505050565b8151600090815b818110156103f8576103e68582815181106103bf576103bf6107ce565b60200260200101518583815181106103d9576103d96107ce565b60200260200101516101d8565b806103f0816107e4565b9150506103a2565b5090505b92915050565b6001600160a01b038216600090815260016020908152604080832084845290915281205481906104625760405162461bcd60e51b81526020600482015260076024820152664e6f204461746160c81b604482015260640160405180910390fd5b6001600160a01b038416600090815260016020818152604080842087855290915282205461049091906107bb565b6001600160a01b0395909516600090815260208181526040808320968352958152858220968252958652849020845180860190955280548086526001909101549490950184905250929391925050565b80356001600160a01b03811681146104f757600080fd5b919050565b60008060006060848603121561051157600080fd5b61051a846104e0565b95602085013595506040909401359392505050565b6000806040838503121561054257600080fd5b61054b836104e0565b946020939093013593505050565b6000806040838503121561056c57600080fd5b50508035926020909101359150565b6000806000806080858703121561059157600080fd5b61059a856104e0565b966020860135965060408601359560600135945092505050565b602080825282518282018190526000919060409081850190868401855b828110156105f6578151805185528601518685015292840192908501906001016105d1565b5091979650505050505050565b634e487b7160e01b600052604160045260246000fd5b604051601f8201601f1916810167ffffffffffffffff8111828210171561064257610642610603565b604052919050565b600067ffffffffffffffff82111561066457610664610603565b5060051b60200190565b600082601f83011261067f57600080fd5b8135602061069461068f8361064a565b610619565b82815260059290921b840181019181810190868411156106b357600080fd5b8286015b848110156106ce57803583529183019183016106b7565b509695505050505050565b600080604083850312156106ec57600080fd5b823567ffffffffffffffff8082111561070457600080fd5b818501915085601f83011261071857600080fd5b8135602061072861068f8361064a565b82815260059290921b8401810191818101908984111561074757600080fd5b948201945b838610156107655785358252948201949082019061074c565b9650508601359250508082111561077b57600080fd5b506107888582860161066e565b9150509250929050565b634e487b7160e01b600052601160045260246000fd5b808201808211156103fc576103fc610792565b818103818111156103fc576103fc610792565b634e487b7160e01b600052603260045260246000fd5b6000600182016107f6576107f6610792565b506001019056fea26469706673582212206db3606313f6e4e073e1387e992b0698879307da87389e0b89c9e80895cc369d64736f6c63430008110033",
  "devdoc": {
    "kind": "dev",
    "methods": {},
    "version": 1
  },
  "userdoc": {
    "kind": "user",
    "methods": {},
    "version": 1
  },
  "storageLayout": {
    "storage": [
      {
        "astId": 21,
        "contract": "contracts/SensesJBCData.sol:SensesJBCData",
        "label": "data",
        "offset": 0,
        "slot": "0",
        "type": "t_mapping(t_address,t_mapping(t_uint256,t_mapping(t_uint256,t_struct(SensesIoTData)12_storage)))"
      },
      {
        "astId": 27,
        "contract": "contracts/SensesJBCData.sol:SensesJBCData",
        "label": "dataLength",
        "offset": 0,
        "slot": "1",
        "type": "t_mapping(t_address,t_mapping(t_uint256,t_uint256))"
      }
    ],
    "types": {
      "t_address": {
        "encoding": "inplace",
        "label": "address",
        "numberOfBytes": "20"
      },
      "t_int256": {
        "encoding": "inplace",
        "label": "int256",
        "numberOfBytes": "32"
      },
      "t_mapping(t_address,t_mapping(t_uint256,t_mapping(t_uint256,t_struct(SensesIoTData)12_storage)))": {
        "encoding": "mapping",
        "key": "t_address",
        "label": "mapping(address => mapping(uint256 => mapping(uint256 => struct SensesJBCData.SensesIoTData)))",
        "numberOfBytes": "32",
        "value": "t_mapping(t_uint256,t_mapping(t_uint256,t_struct(SensesIoTData)12_storage))"
      },
      "t_mapping(t_address,t_mapping(t_uint256,t_uint256))": {
        "encoding": "mapping",
        "key": "t_address",
        "label": "mapping(address => mapping(uint256 => uint256))",
        "numberOfBytes": "32",
        "value": "t_mapping(t_uint256,t_uint256)"
      },
      "t_mapping(t_uint256,t_mapping(t_uint256,t_struct(SensesIoTData)12_storage))": {
        "encoding": "mapping",
        "key": "t_uint256",
        "label": "mapping(uint256 => mapping(uint256 => struct SensesJBCData.SensesIoTData))",
        "numberOfBytes": "32",
        "value": "t_mapping(t_uint256,t_struct(SensesIoTData)12_storage)"
      },
      "t_mapping(t_uint256,t_struct(SensesIoTData)12_storage)": {
        "encoding": "mapping",
        "key": "t_uint256",
        "label": "mapping(uint256 => struct SensesJBCData.SensesIoTData)",
        "numberOfBytes": "32",
        "value": "t_struct(SensesIoTData)12_storage"
      },
      "t_mapping(t_uint256,t_uint256)": {
        "encoding": "mapping",
        "key": "t_uint256",
        "label": "mapping(uint256 => uint256)",
        "numberOfBytes": "32",
        "value": "t_uint256"
      },
      "t_struct(SensesIoTData)12_storage": {
        "encoding": "inplace",
        "label": "struct SensesJBCData.SensesIoTData",
        "members": [
          {
            "astId": 9,
            "contract": "contracts/SensesJBCData.sol:SensesJBCData",
            "label": "ts",
            "offset": 0,
            "slot": "0",
            "type": "t_uint256"
          },
          {
            "astId": 11,
            "contract": "contracts/SensesJBCData.sol:SensesJBCData",
            "label": "data",
            "offset": 0,
            "slot": "1",
            "type": "t_int256"
          }
        ],
        "numberOfBytes": "64"
      },
      "t_uint256": {
        "encoding": "inplace",
        "label": "uint256",
        "numberOfBytes": "32"
      }
    }
  }
}