{
  "address": "0xBA494Ec6376f3b60a01f9048DFE97b86B649606d",
  "abi": [
    {
      "inputs": [
        {
          "internalType": "address",
          "name": "_owner",
          "type": "address"
        }
      ],
      "stateMutability": "nonpayable",
      "type": "constructor"
    },
    {
      "inputs": [
        {
          "internalType": "address",
          "name": "",
          "type": "address"
        },
        {
          "internalType": "uint256",
          "name": "",
          "type": "uint256"
        }
      ],
      "name": "dashboardData",
      "outputs": [
        {
          "internalType": "bytes",
          "name": "",
          "type": "bytes"
        }
      ],
      "stateMutability": "view",
      "type": "function"
    },
    {
      "inputs": [
        {
          "internalType": "address",
          "name": "",
          "type": "address"
        }
      ],
      "name": "dashboardLength",
      "outputs": [
        {
          "internalType": "uint256",
          "name": "",
          "type": "uint256"
        }
      ],
      "stateMutability": "view",
      "type": "function"
    },
    {
      "inputs": [],
      "name": "owner",
      "outputs": [
        {
          "internalType": "address",
          "name": "",
          "type": "address"
        }
      ],
      "stateMutability": "view",
      "type": "function"
    },
    {
      "inputs": [
        {
          "internalType": "uint256",
          "name": "_id",
          "type": "uint256"
        },
        {
          "internalType": "bytes",
          "name": "_byteData",
          "type": "bytes"
        }
      ],
      "name": "updateDashboardData",
      "outputs": [],
      "stateMutability": "nonpayable",
      "type": "function"
    },
    {
      "inputs": [],
      "name": "version",
      "outputs": [
        {
          "internalType": "uint256",
          "name": "",
          "type": "uint256"
        }
      ],
      "stateMutability": "view",
      "type": "function"
    }
  ],
  "transactionHash": "0xd21a6437f1e75a3422981a796a3827196ad845cb6f6c8aa4cab0e654f19c606f",
  "args": [
    "0xC70Edf3aB36E0D57eFD8f412A3460D225931A110"
  ],
  "numDeployments": 1,
  "solcInputHash": "b8c155fd66b4e4a8d8ba828d90fabb0c",
  "bytecode": "0x60c0604052600160a05234801561001557600080fd5b5060405161064838038061064883398101604081905261003491610045565b6001600160a01b0316608052610075565b60006020828403121561005757600080fd5b81516001600160a01b038116811461006e57600080fd5b9392505050565b60805160a0516105b06100986000396000606101526000609b01526105b06000f3fe608060405234801561001057600080fd5b50600436106100575760003560e01c806354fd4d501461005c5780638da5cb5b146100965780639b5eff7f146100d5578063bb2c0e00146100f5578063e0095f151461010a575b600080fd5b6100837f000000000000000000000000000000000000000000000000000000000000000081565b6040519081526020015b60405180910390f35b6100bd7f000000000000000000000000000000000000000000000000000000000000000081565b6040516001600160a01b03909116815260200161008d565b6100836100e336600461029f565b60016020526000908152604090205481565b6101086101033660046102d7565b61012a565b005b61011d610118366004610392565b6101e1565b60405161008d91906103bc565b3360009081526001602052604090205482111561017c5760405162461bcd60e51b815260206004820152600c60248201526b13dd5d081bd988189bdd5b9960a21b604482015260640160405180910390fd5b33600090815260208181526040808320858452909152902061019e8282610493565b503360009081526001602052604090205482036101dd5733600090815260016020819052604082208054919290916101d7908490610553565b90915550505b5050565b6000602081815292815260408082209093529081522080546102029061040a565b80601f016020809104026020016040519081016040528092919081815260200182805461022e9061040a565b801561027b5780601f106102505761010080835404028352916020019161027b565b820191906000526020600020905b81548152906001019060200180831161025e57829003601f168201915b505050505081565b80356001600160a01b038116811461029a57600080fd5b919050565b6000602082840312156102b157600080fd5b6102ba82610283565b9392505050565b634e487b7160e01b600052604160045260246000fd5b600080604083850312156102ea57600080fd5b82359150602083013567ffffffffffffffff8082111561030957600080fd5b818501915085601f83011261031d57600080fd5b81358181111561032f5761032f6102c1565b604051601f8201601f19908116603f01168101908382118183101715610357576103576102c1565b8160405282815288602084870101111561037057600080fd5b8260208601602083013760006020848301015280955050505050509250929050565b600080604083850312156103a557600080fd5b6103ae83610283565b946020939093013593505050565b600060208083528351808285015260005b818110156103e9578581018301518582016040015282016103cd565b506000604082860101526040601f19601f8301168501019250505092915050565b600181811c9082168061041e57607f821691505b60208210810361043e57634e487b7160e01b600052602260045260246000fd5b50919050565b601f82111561048e57600081815260208120601f850160051c8101602086101561046b5750805b601f850160051c820191505b8181101561048a57828155600101610477565b5050505b505050565b815167ffffffffffffffff8111156104ad576104ad6102c1565b6104c1816104bb845461040a565b84610444565b602080601f8311600181146104f657600084156104de5750858301515b600019600386901b1c1916600185901b17855561048a565b600085815260208120601f198616915b8281101561052557888601518255948401946001909101908401610506565b50858210156105435787850151600019600388901b60f8161c191681555b5050505050600190811b01905550565b8082018082111561057457634e487b7160e01b600052601160045260246000fd5b9291505056fea26469706673582212208af8c9db9ba2637564896c468d0a5c79d076fdc09ec16c792a42874eae266d2b64736f6c63430008110033",
  "devdoc": {
    "kind": "dev",
    "methods": {},
    "version": 1
  },
  "userdoc": {
    "kind": "user",
    "methods": {},
    "version": 1
  },
  "storageLayout": {
    "storage": [
      {
        "astId": 13,
        "contract": "contracts/SensesJBCDashboard.sol:SensesJBCDashboard",
        "label": "dashboardData",
        "offset": 0,
        "slot": "0",
        "type": "t_mapping(t_address,t_mapping(t_uint256,t_bytes_storage))"
      },
      {
        "astId": 17,
        "contract": "contracts/SensesJBCDashboard.sol:SensesJBCDashboard",
        "label": "dashboardLength",
        "offset": 0,
        "slot": "1",
        "type": "t_mapping(t_address,t_uint256)"
      }
    ],
    "types": {
      "t_address": {
        "encoding": "inplace",
        "label": "address",
        "numberOfBytes": "20"
      },
      "t_bytes_storage": {
        "encoding": "bytes",
        "label": "bytes",
        "numberOfBytes": "32"
      },
      "t_mapping(t_address,t_mapping(t_uint256,t_bytes_storage))": {
        "encoding": "mapping",
        "key": "t_address",
        "label": "mapping(address => mapping(uint256 => bytes))",
        "numberOfBytes": "32",
        "value": "t_mapping(t_uint256,t_bytes_storage)"
      },
      "t_mapping(t_address,t_uint256)": {
        "encoding": "mapping",
        "key": "t_address",
        "label": "mapping(address => uint256)",
        "numberOfBytes": "32",
        "value": "t_uint256"
      },
      "t_mapping(t_uint256,t_bytes_storage)": {
        "encoding": "mapping",
        "key": "t_uint256",
        "label": "mapping(uint256 => bytes)",
        "numberOfBytes": "32",
        "value": "t_bytes_storage"
      },
      "t_uint256": {
        "encoding": "inplace",
        "label": "uint256",
        "numberOfBytes": "32"
      }
    }
  }
}